:020000020000FC
:100000000CE30AB910E214B99FEF29B1A0E4A923C7
:100010002A2F269539B1A0E8A9233A2F369536958F
:1000200043B1A1E0A9234A2FE5E02CD015B90E94E5
:100030004600A32FC42FAC23CB2FAC235A2FA32FC2
:10004000A095A423AB23F32F4095B095F423FB2375
:10005000D22FD423DB23AF2BAD2B6A2F4095B09545
:100060007B2F7095A22FB095AB238A2FB09510955A
:1000700015B90E9446000E943F00C7CFFFCFA0E203
:10008000A023ABB9440FEA95E9F7089574E684E636
:10009000D4E6DA95E9F78A95D1F77A95B9F7089514
:00000001FF
