:100000000C9434000C943E000C943E000C943E0082
:100010000C943E000C943E000C943E000C943E0068
:100020000C943E000C943E000C943E000C943E0058
:100030000C943E000C943E000C943E000C943E0048
:100040000C943E000C943E000C943E000C943E0038
:100050000C943E000C943E000C943E000C943E0028
:100060000C943E000C943E0011241FBECFEFD8E04C
:10007000DEBFCDBF0E9481000C94D5000C9400001F
:100080008DE090E02D9A20EE2A95F1F72D9820EE44
:100090002A95F1F70197B1F78FEF97EA21E68150A2
:1000A00090402040E1F700C0000008959C01269F89
:1000B000C001279F900D369F900D11249C0136950D
:1000C00027953695279536952795A5ECB0E20E94A1
:1000D000C600929582958F7089279F708927009717
:1000E00079F020E030E02D9A40EE4A95F1F72D9816
:1000F00040EE4A95F1F72F5F3F4F8217930799F72C
:10010000089580E68AB980E284B980EC8BB983E0F7
:1001100085B920E030E040E251E08DE090E02D9A9A
:1001200060EE6A95F1F72D9860EE6A95F1F7019708
:10013000B1F745B98FEF93EC69E081509040604092
:10014000E1F700C00000252731111AC02295220FC7
:10015000220F207C80E08BB92BB939B132FB3327D9
:1001600030F929B123FB222720F915B88FEF93EC42
:1001700069E0815090406040E1F700C00000CDCFC1
:10018000822F8295880F807E20E0E5CFA29FB0016C
:10019000B39FC001A39F700D811D1124911DB29FBB
:0E01A000700D811D1124911D0895F894FFCF5C
:00000001FF
