:100000000C9434000C943E000C943E000C943E0082
:100010000C943E000C943E000C943E000C943E0068
:100020000C943E000C943E000C943E000C943E0058
:100030000C943E000C943E000C943E000C943E0048
:100040000C943E000C943E000C943E000C943E0038
:100050000C943E000C943E000C943E000C943E0028
:100060000C943E000C943E0011241FBECFEFD8E04C
:10007000DEBFCDBF0E9440000C9475000C940000C0
:1000800080E68AB980E284B980EC8BB983E085B9D7
:1000900090E080E020E21BC0911125C090E29BB966
:1000A0008295880F880F807C8BB989B182FB882765
:1000B00080F999B193FB992790F915B83FEF43EC7C
:1000C00059E0315040405040E1F700C0000025B9F0
:1000D0003FEF43EC59E0315040405040E1F700C061
:0E00E00000008823C9F290E0DACFF894FFCF39
:00000001FF
